{
  "contractName": "GetFile",
  "abi": [
    {
      "anonymous": false,
      "inputs": [
        {
          "indexed": true,
          "internalType": "address",
          "name": "previousOwner",
          "type": "address"
        },
        {
          "indexed": true,
          "internalType": "address",
          "name": "newOwner",
          "type": "address"
        }
      ],
      "name": "OwnershipTransferred",
      "type": "event"
    },
    {
      "anonymous": false,
      "inputs": [
        {
          "indexed": false,
          "internalType": "string",
          "name": "name",
          "type": "string"
        },
        {
          "indexed": false,
          "internalType": "string",
          "name": "fileHash",
          "type": "string"
        },
        {
          "indexed": true,
          "internalType": "address",
          "name": "owner",
          "type": "address"
        },
        {
          "indexed": false,
          "internalType": "uint256",
          "name": "storeDate",
          "type": "uint256"
        }
      ],
      "name": "StoreFileEvent",
      "type": "event"
    },
    {
      "inputs": [
        {
          "internalType": "string",
          "name": "_name",
          "type": "string"
        },
        {
          "internalType": "string",
          "name": "_fileHash",
          "type": "string"
        },
        {
          "internalType": "address",
          "name": "_owner",
          "type": "address"
        }
      ],
      "name": "Store",
      "outputs": [],
      "stateMutability": "nonpayable",
      "type": "function"
    },
    {
      "inputs": [
        {
          "internalType": "uint256",
          "name": "",
          "type": "uint256"
        }
      ],
      "name": "files",
      "outputs": [
        {
          "internalType": "string",
          "name": "name",
          "type": "string"
        },
        {
          "internalType": "string",
          "name": "fileHash",
          "type": "string"
        },
        {
          "internalType": "address",
          "name": "owner",
          "type": "address"
        },
        {
          "internalType": "uint256",
          "name": "storeDate",
          "type": "uint256"
        }
      ],
      "stateMutability": "view",
      "type": "function"
    },
    {
      "inputs": [],
      "name": "isOwner",
      "outputs": [
        {
          "internalType": "bool",
          "name": "",
          "type": "bool"
        }
      ],
      "stateMutability": "view",
      "type": "function"
    },
    {
      "inputs": [],
      "name": "owner",
      "outputs": [
        {
          "internalType": "address",
          "name": "",
          "type": "address"
        }
      ],
      "stateMutability": "view",
      "type": "function"
    },
    {
      "inputs": [],
      "name": "renounceOwnership",
      "outputs": [],
      "stateMutability": "nonpayable",
      "type": "function"
    },
    {
      "inputs": [
        {
          "internalType": "address",
          "name": "newOwner",
          "type": "address"
        }
      ],
      "name": "transferOwnership",
      "outputs": [],
      "stateMutability": "nonpayable",
      "type": "function"
    },
    {
      "inputs": [
        {
          "internalType": "address",
          "name": "_owner",
          "type": "address"
        }
      ],
      "name": "getFilesByOwner",
      "outputs": [
        {
          "internalType": "uint256[]",
          "name": "",
          "type": "uint256[]"
        }
      ],
      "stateMutability": "view",
      "type": "function"
    },
    {
      "inputs": [
        {
          "internalType": "address",
          "name": "_owner",
          "type": "address"
        },
        {
          "internalType": "uint256[]",
          "name": "fileIds",
          "type": "uint256[]"
        }
      ],
      "name": "getOwnerFileDetails",
      "outputs": [
        {
          "internalType": "string[]",
          "name": "",
          "type": "string[]"
        },
        {
          "internalType": "string[]",
          "name": "",
          "type": "string[]"
        }
      ],
      "stateMutability": "view",
      "type": "function"
    },
    {
      "inputs": [
        {
          "internalType": "string",
          "name": "_fileHash",
          "type": "string"
        }
      ],
      "name": "checkFileExistByHash",
      "outputs": [
        {
          "internalType": "bool",
          "name": "",
          "type": "bool"
        },
        {
          "internalType": "address",
          "name": "",
          "type": "address"
        }
      ],
      "stateMutability": "view",
      "type": "function"
    },
    {
      "inputs": [
        {
          "internalType": "string",
          "name": "_fileHash",
          "type": "string"
        }
      ],
      "name": "getFileIdByHash",
      "outputs": [
        {
          "internalType": "uint256",
          "name": "",
          "type": "uint256"
        },
        {
          "internalType": "bool",
          "name": "",
          "type": "bool"
        }
      ],
      "stateMutability": "view",
      "type": "function"
    }
  ],
  "bytecode": "0x608060405234801561001057600080fd5b50336000806101000a81548173ffffffffffffffffffffffffffffffffffffffff021916908373ffffffffffffffffffffffffffffffffffffffff16021790555060008054906101000a900473ffffffffffffffffffffffffffffffffffffffff1673ffffffffffffffffffffffffffffffffffffffff16600073ffffffffffffffffffffffffffffffffffffffff167f8be0079c531659141344cd1fd0a4f28419497f9722a3daafe3b4186f6b6457e060405160405180910390a3611c57806100db6000396000f3fe608060405234801561001057600080fd5b506004361061009e5760003560e01c8063c26001c611610066578063c26001c614610136578063f2fde38b14610167578063f4c714b414610183578063f8258bf0146101b6578063fc08a7d7146101e75761009e565b80630fe9a1d6146100a357806357613b8e146100bf578063715018a6146100f05780638da5cb5b146100fa5780638f32d59b14610118575b600080fd5b6100bd60048036038101906100b8919061126a565b610217565b005b6100d960048036038101906100d491906113f3565b610635565b6040516100e7929190611599565b60405180910390f35b6100f861091d565b005b6101026109ec565b60405161010f91906115df565b60405180910390f35b610120610a15565b60405161012d9190611615565b60405180910390f35b610150600480360381019061014b9190611630565b610a6c565b60405161015e929190611679565b60405180910390f35b610181600480360381019061017c91906116a2565b610b55565b005b61019d600480360381019061019891906116cf565b610b72565b6040516101ad9493929190611755565b60405180910390f35b6101d060048036038101906101cb9190611630565b610ce2565b6040516101de9291906117a8565b60405180910390f35b61020160048036038101906101fc91906116a2565b610d99565b60405161020e919061188f565b60405180910390f35b60008080600090505b6001805490508110156102e1578460405160200161023e91906118ed565b604051602081830303815290604052805190602001206003600083815260200190815260200160002060405160200161027791906119f9565b6040516020818303038152906040528051906020012014156102ce57600192506002600082815260200190815260200160002060009054906101000a900473ffffffffffffffffffffffffffffffffffffffff1691505b80806102d990611a3f565b915050610220565b5060011515821515141561032a576040517f08c379a000000000000000000000000000000000000000000000000000000000815260040161032190611ad4565b60405180910390fd5b8273ffffffffffffffffffffffffffffffffffffffff168173ffffffffffffffffffffffffffffffffffffffff161415610399576040517f08c379a000000000000000000000000000000000000000000000000000000000815260040161039090611ad4565b60405180910390fd5b6000429050600160405180608001604052808881526020018781526020018673ffffffffffffffffffffffffffffffffffffffff168152602001838152509080600181540180825580915050600190039060005260206000209060040201600090919091909150600082015181600001908051906020019061041c92919061100f565b50602082015181600101908051906020019061043992919061100f565b5060408201518160020160006101000a81548173ffffffffffffffffffffffffffffffffffffffff021916908373ffffffffffffffffffffffffffffffffffffffff1602179055506060820151816003015550506000600180805490506104a09190611af4565b9050336002600083815260200190815260200160002060006101000a81548173ffffffffffffffffffffffffffffffffffffffff021916908373ffffffffffffffffffffffffffffffffffffffff1602179055508560036000838152602001908152602001600020908051906020019061051b92919061100f565b508660046000838152602001908152602001600020908051906020019061054392919061100f565b506105976001600560003373ffffffffffffffffffffffffffffffffffffffff1673ffffffffffffffffffffffffffffffffffffffff16815260200190815260200160002054610eec90919063ffffffff16565b600560003373ffffffffffffffffffffffffffffffffffffffff1673ffffffffffffffffffffffffffffffffffffffff168152602001908152602001600020819055508473ffffffffffffffffffffffffffffffffffffffff167f15fcfac5eaf6fc2bd63c0f413b1c9885f063e4e81c98237dc2b55b2067bfddc688888560405161062493929190611b28565b60405180910390a250505050505050565b6060806000600560008673ffffffffffffffffffffffffffffffffffffffff1673ffffffffffffffffffffffffffffffffffffffff1681526020019081526020016000205467ffffffffffffffff811115610693576106926110e1565b5b6040519080825280602002602001820160405280156106c657816020015b60608152602001906001900390816106b15790505b5090506000600560008773ffffffffffffffffffffffffffffffffffffffff1673ffffffffffffffffffffffffffffffffffffffff1681526020019081526020016000205467ffffffffffffffff811115610724576107236110e1565b5b60405190808252806020026020018201604052801561075757816020015b60608152602001906001900390816107425790505b50905060005b855181101561090d57600086828151811061077b5761077a611b6d565b5b602002602001015190506004600082815260200190815260200160002080546107a390611933565b80601f01602080910402602001604051908101604052809291908181526020018280546107cf90611933565b801561081c5780601f106107f15761010080835404028352916020019161081c565b820191906000526020600020905b8154815290600101906020018083116107ff57829003601f168201915b505050505084838151811061083457610833611b6d565b5b602002602001018190525060036000828152602001908152602001600020805461085d90611933565b80601f016020809104026020016040519081016040528092919081815260200182805461088990611933565b80156108d65780601f106108ab576101008083540402835291602001916108d6565b820191906000526020600020905b8154815290600101906020018083116108b957829003601f168201915b50505050508383815181106108ee576108ed611b6d565b5b602002602001018190525050808061090590611a3f565b91505061075d565b5081819350935050509250929050565b610925610a15565b61092e57600080fd5b600073ffffffffffffffffffffffffffffffffffffffff1660008054906101000a900473ffffffffffffffffffffffffffffffffffffffff1673ffffffffffffffffffffffffffffffffffffffff167f8be0079c531659141344cd1fd0a4f28419497f9722a3daafe3b4186f6b6457e060405160405180910390a360008060006101000a81548173ffffffffffffffffffffffffffffffffffffffff021916908373ffffffffffffffffffffffffffffffffffffffff160217905550565b60008060009054906101000a900473ffffffffffffffffffffffffffffffffffffffff16905090565b60008060009054906101000a900473ffffffffffffffffffffffffffffffffffffffff1673ffffffffffffffffffffffffffffffffffffffff163373ffffffffffffffffffffffffffffffffffffffff1614905090565b60008060008080600090505b600180549050811015610b465785604051602001610a9691906118ed565b6040516020818303038152906040528051906020012060036000838152602001908152602001600020604051602001610acf91906119f9565b604051602081830303815290604052805190602001201415610b3357600192506002600082815260200190815260200160002060009054906101000a900473ffffffffffffffffffffffffffffffffffffffff169150828294509450505050610b50565b8080610b3e90611a3f565b915050610a78565b5081819350935050505b915091565b610b5d610a15565b610b6657600080fd5b610b6f81610f18565b50565b60018181548110610b8257600080fd5b9060005260206000209060040201600091509050806000018054610ba590611933565b80601f0160208091040260200160405190810160405280929190818152602001828054610bd190611933565b8015610c1e5780601f10610bf357610100808354040283529160200191610c1e565b820191906000526020600020905b815481529060010190602001808311610c0157829003601f168201915b505050505090806001018054610c3390611933565b80601f0160208091040260200160405190810160405280929190818152602001828054610c5f90611933565b8015610cac5780601f10610c8157610100808354040283529160200191610cac565b820191906000526020600020905b815481529060010190602001808311610c8f57829003601f168201915b5050505050908060020160009054906101000a900473ffffffffffffffffffffffffffffffffffffffff16908060030154905084565b6000806000805b600180549050811015610d805784604051602001610d0791906118ed565b6040516020818303038152906040528051906020012060036000838152602001908152602001600020604051602001610d4091906119f9565b604051602081830303815290604052805190602001201415610d6d57600191508082935093505050610d94565b8080610d7890611a3f565b915050610ce9565b506000600180549050905080829350935050505b915091565b60606000600560008473ffffffffffffffffffffffffffffffffffffffff1673ffffffffffffffffffffffffffffffffffffffff1681526020019081526020016000205467ffffffffffffffff811115610df657610df56110e1565b5b604051908082528060200260200182016040528015610e245781602001602082028036833780820191505090505b5090506000805b600180549050811015610ee1578473ffffffffffffffffffffffffffffffffffffffff166002600083815260200190815260200160002060009054906101000a900473ffffffffffffffffffffffffffffffffffffffff1673ffffffffffffffffffffffffffffffffffffffff161415610ece5780838381518110610eb357610eb2611b6d565b5b6020026020010181815250508180610eca90611a3f565b9250505b8080610ed990611a3f565b915050610e2b565b508192505050919050565b6000808284610efb9190611b9c565b905083811015610f0e57610f0d611bf2565b5b8091505092915050565b600073ffffffffffffffffffffffffffffffffffffffff168173ffffffffffffffffffffffffffffffffffffffff161415610f5257600080fd5b8073ffffffffffffffffffffffffffffffffffffffff1660008054906101000a900473ffffffffffffffffffffffffffffffffffffffff1673ffffffffffffffffffffffffffffffffffffffff167f8be0079c531659141344cd1fd0a4f28419497f9722a3daafe3b4186f6b6457e060405160405180910390a3806000806101000a81548173ffffffffffffffffffffffffffffffffffffffff021916908373ffffffffffffffffffffffffffffffffffffffff16021790555050565b82805461101b90611933565b90600052602060002090601f01602090048101928261103d5760008555611084565b82601f1061105657805160ff1916838001178555611084565b82800160010185558215611084579182015b82811115611083578251825591602001919060010190611068565b5b5090506110919190611095565b5090565b5b808211156110ae576000816000905550600101611096565b5090565b6000604051905090565b600080fd5b600080fd5b600080fd5b600080fd5b6000601f19601f8301169050919050565b7f4e487b7100000000000000000000000000000000000000000000000000000000600052604160045260246000fd5b611119826110d0565b810181811067ffffffffffffffff82111715611138576111376110e1565b5b80604052505050565b600061114b6110b2565b90506111578282611110565b919050565b600067ffffffffffffffff821115611177576111766110e1565b5b611180826110d0565b9050602081019050919050565b82818337600083830152505050565b60006111af6111aa8461115c565b611141565b9050828152602081018484840111156111cb576111ca6110cb565b5b6111d684828561118d565b509392505050565b600082601f8301126111f3576111f26110c6565b5b813561120384826020860161119c565b91505092915050565b600073ffffffffffffffffffffffffffffffffffffffff82169050919050565b60006112378261120c565b9050919050565b6112478161122c565b811461125257600080fd5b50565b6000813590506112648161123e565b92915050565b600080600060608486031215611283576112826110bc565b5b600084013567ffffffffffffffff8111156112a1576112a06110c1565b5b6112ad868287016111de565b935050602084013567ffffffffffffffff8111156112ce576112cd6110c1565b5b6112da868287016111de565b92505060406112eb86828701611255565b9150509250925092565b600067ffffffffffffffff8211156113105761130f6110e1565b5b602082029050602081019050919050565b600080fd5b6000819050919050565b61133981611326565b811461134457600080fd5b50565b60008135905061135681611330565b92915050565b600061136f61136a846112f5565b611141565b9050808382526020820190506020840283018581111561139257611391611321565b5b835b818110156113bb57806113a78882611347565b845260208401935050602081019050611394565b5050509392505050565b600082601f8301126113da576113d96110c6565b5b81356113ea84826020860161135c565b91505092915050565b6000806040838503121561140a576114096110bc565b5b600061141885828601611255565b925050602083013567ffffffffffffffff811115611439576114386110c1565b5b611445858286016113c5565b9150509250929050565b600081519050919050565b600082825260208201905092915050565b6000819050602082019050919050565b600081519050919050565b600082825260208201905092915050565b60005b838110156114b557808201518184015260208101905061149a565b838111156114c4576000848401525b50505050565b60006114d58261147b565b6114df8185611486565b93506114ef818560208601611497565b6114f8816110d0565b840191505092915050565b600061150f83836114ca565b905092915050565b6000602082019050919050565b600061152f8261144f565b611539818561145a565b93508360208202850161154b8561146b565b8060005b8581101561158757848403895281516115688582611503565b945061157383611517565b925060208a0199505060018101905061154f565b50829750879550505050505092915050565b600060408201905081810360008301526115b38185611524565b905081810360208301526115c78184611524565b90509392505050565b6115d98161122c565b82525050565b60006020820190506115f460008301846115d0565b92915050565b60008115159050919050565b61160f816115fa565b82525050565b600060208201905061162a6000830184611606565b92915050565b600060208284031215611646576116456110bc565b5b600082013567ffffffffffffffff811115611664576116636110c1565b5b611670848285016111de565b91505092915050565b600060408201905061168e6000830185611606565b61169b60208301846115d0565b9392505050565b6000602082840312156116b8576116b76110bc565b5b60006116c684828501611255565b91505092915050565b6000602082840312156116e5576116e46110bc565b5b60006116f384828501611347565b91505092915050565b600082825260208201905092915050565b60006117188261147b565b61172281856116fc565b9350611732818560208601611497565b61173b816110d0565b840191505092915050565b61174f81611326565b82525050565b6000608082019050818103600083015261176f818761170d565b90508181036020830152611783818661170d565b905061179260408301856115d0565b61179f6060830184611746565b95945050505050565b60006040820190506117bd6000830185611746565b6117ca6020830184611606565b9392505050565b600081519050919050565b600082825260208201905092915050565b6000819050602082019050919050565b61180681611326565b82525050565b600061181883836117fd565b60208301905092915050565b6000602082019050919050565b600061183c826117d1565b61184681856117dc565b9350611851836117ed565b8060005b83811015611882578151611869888261180c565b975061187483611824565b925050600181019050611855565b5085935050505092915050565b600060208201905081810360008301526118a98184611831565b905092915050565b600081905092915050565b60006118c78261147b565b6118d181856118b1565b93506118e1818560208601611497565b80840191505092915050565b60006118f982846118bc565b915081905092915050565b7f4e487b7100000000000000000000000000000000000000000000000000000000600052602260045260246000fd5b6000600282049050600182168061194b57607f821691505b6020821081141561195f5761195e611904565b5b50919050565b60008190508160005260206000209050919050565b6000815461198781611933565b61199181866118b1565b945060018216600081146119ac57600181146119bd576119f0565b60ff198316865281860193506119f0565b6119c685611965565b60005b838110156119e8578154818901526001820191506020810190506119c9565b838801955050505b50505092915050565b6000611a05828461197a565b915081905092915050565b7f4e487b7100000000000000000000000000000000000000000000000000000000600052601160045260246000fd5b6000611a4a82611326565b91507fffffffffffffffffffffffffffffffffffffffffffffffffffffffffffffffff821415611a7d57611a7c611a10565b5b600182019050919050565b7f46696c6520616c72656164792065786973740000000000000000000000000000600082015250565b6000611abe6012836116fc565b9150611ac982611a88565b602082019050919050565b60006020820190508181036000830152611aed81611ab1565b9050919050565b6000611aff82611326565b9150611b0a83611326565b925082821015611b1d57611b1c611a10565b5b828203905092915050565b60006060820190508181036000830152611b42818661170d565b90508181036020830152611b56818561170d565b9050611b656040830184611746565b949350505050565b7f4e487b7100000000000000000000000000000000000000000000000000000000600052603260045260246000fd5b6000611ba782611326565b9150611bb283611326565b9250827fffffffffffffffffffffffffffffffffffffffffffffffffffffffffffffffff03821115611be757611be6611a10565b5b828201905092915050565b7f4e487b7100000000000000000000000000000000000000000000000000000000600052600160045260246000fdfea2646970667358221220291457371091528449b24b6a837691912946f195b971eddc64765dd3c58336db64736f6c634300080c0033",
  "immutableReferences": {},
  "source": "// SPDX-License-Identifier: MIT\r\npragma solidity ^0.8.0;\r\n\r\nimport \"./StoreFile.sol\";\r\n\r\ncontract GetFile is StoreFile {\r\n  function getFilesByOwner(address _owner) public view returns(uint[] memory) {\r\n    uint[] memory result = new uint[](ownerFileCount[_owner]);\r\n    uint counter = 0;\r\n    for(uint i = 0; i < files.length; i++) {\r\n      if(fileToOwner[i] == _owner) {\r\n        result[counter] = i;\r\n        counter++;\r\n      }\r\n    }\r\n    return result;\r\n  }\r\n\r\n  function getOwnerFileDetails(address _owner, uint[] memory fileIds) public view returns(string[] memory, string[] memory) {\r\n    string[] memory fileNames = new string[](ownerFileCount[_owner]);\r\n    string[] memory fileHashes = new string[](ownerFileCount[_owner]);\r\n    for(uint i = 0; i < fileIds.length; i++) {\r\n      uint fileId = fileIds[i];\r\n      fileNames[i] = fileToName[fileId];\r\n      fileHashes[i] = fileToHash[fileId];\r\n    }\r\n    return (fileNames, fileHashes);\r\n  }\r\n\r\n  function checkFileExistByHash(string memory _fileHash) public view returns(bool, address) {\r\n    bool isExist = false;\r\n    address owner;\r\n    for(uint i = 0; i < files.length; i++) {\r\n      if(keccak256(abi.encodePacked(fileToHash[i])) == keccak256(abi.encodePacked(_fileHash))){\r\n        isExist = true;\r\n        owner = fileToOwner[i];\r\n        return (isExist, owner);\r\n      }\r\n    }\r\n    return (isExist, owner);\r\n  }\r\n\r\n  function getFileIdByHash(string memory _fileHash) public view returns(uint, bool) {\r\n    bool isExist = false;\r\n    for(uint i = 0; i < files.length; i++) {\r\n      if(keccak256(abi.encodePacked(fileToHash[i])) == keccak256(abi.encodePacked(_fileHash))){\r\n        isExist = true;\r\n        return (i, isExist);\r\n      }\r\n    }\r\n    uint id = files.length;\r\n    return(id, isExist);\r\n  }\r\n}",
  "sourcePath": "C:\\Users\\DELL\\Desktop\\planet-of-docs\\contracts\\GetFile.sol",
  "compiler": {
    "name": "solc",
    "version": "0.8.12+commit.f00d7308.Emscripten.clang"
  },
  "schemaVersion": "3.4.5",
  "updatedAt": "2022-03-10T09:56:09.000Z",
  "devdoc": {
    "kind": "dev",
    "methods": {
      "isOwner()": {
        "returns": {
          "_0": "true if `msg.sender` is the owner of the contract."
        }
      },
      "owner()": {
        "returns": {
          "_0": "the address of the owner."
        }
      },
      "renounceOwnership()": {
        "details": "Allows the current owner to relinquish control of the contract."
      },
      "transferOwnership(address)": {
        "details": "Allows the current owner to transfer control of the contract to a newOwner.",
        "params": {
          "newOwner": "The address to transfer ownership to."
        }
      }
    },
    "version": 1
  },
  "userdoc": {
    "kind": "user",
    "methods": {
      "renounceOwnership()": {
        "notice": "Renouncing to ownership will leave the contract without an owner. It will not be possible to call the functions with the `onlyOwner` modifier anymore."
      }
    },
    "version": 1
  }
}