{
  "contractName": "StoreFile",
  "abi": [
    {
      "anonymous": false,
      "inputs": [
        {
          "indexed": true,
          "internalType": "address",
          "name": "previousOwner",
          "type": "address"
        },
        {
          "indexed": true,
          "internalType": "address",
          "name": "newOwner",
          "type": "address"
        }
      ],
      "name": "OwnershipTransferred",
      "type": "event"
    },
    {
      "anonymous": false,
      "inputs": [
        {
          "indexed": false,
          "internalType": "string",
          "name": "name",
          "type": "string"
        },
        {
          "indexed": false,
          "internalType": "string",
          "name": "fileHash",
          "type": "string"
        },
        {
          "indexed": true,
          "internalType": "address",
          "name": "owner",
          "type": "address"
        },
        {
          "indexed": false,
          "internalType": "uint256",
          "name": "storeDate",
          "type": "uint256"
        }
      ],
      "name": "StoreFileEvent",
      "type": "event"
    },
    {
      "inputs": [
        {
          "internalType": "uint256",
          "name": "",
          "type": "uint256"
        }
      ],
      "name": "files",
      "outputs": [
        {
          "internalType": "string",
          "name": "name",
          "type": "string"
        },
        {
          "internalType": "string",
          "name": "fileHash",
          "type": "string"
        },
        {
          "internalType": "address",
          "name": "owner",
          "type": "address"
        },
        {
          "internalType": "uint256",
          "name": "storeDate",
          "type": "uint256"
        }
      ],
      "stateMutability": "view",
      "type": "function"
    },
    {
      "inputs": [],
      "name": "isOwner",
      "outputs": [
        {
          "internalType": "bool",
          "name": "",
          "type": "bool"
        }
      ],
      "stateMutability": "view",
      "type": "function"
    },
    {
      "inputs": [],
      "name": "owner",
      "outputs": [
        {
          "internalType": "address",
          "name": "",
          "type": "address"
        }
      ],
      "stateMutability": "view",
      "type": "function"
    },
    {
      "inputs": [],
      "name": "renounceOwnership",
      "outputs": [],
      "stateMutability": "nonpayable",
      "type": "function"
    },
    {
      "inputs": [
        {
          "internalType": "address",
          "name": "newOwner",
          "type": "address"
        }
      ],
      "name": "transferOwnership",
      "outputs": [],
      "stateMutability": "nonpayable",
      "type": "function"
    },
    {
      "inputs": [
        {
          "internalType": "string",
          "name": "_name",
          "type": "string"
        },
        {
          "internalType": "string",
          "name": "_fileHash",
          "type": "string"
        },
        {
          "internalType": "address",
          "name": "_owner",
          "type": "address"
        }
      ],
      "name": "Store",
      "outputs": [],
      "stateMutability": "nonpayable",
      "type": "function"
    }
  ],
  "bytecode": "0x608060405234801561001057600080fd5b50336000806101000a81548173ffffffffffffffffffffffffffffffffffffffff021916908373ffffffffffffffffffffffffffffffffffffffff16021790555060008054906101000a900473ffffffffffffffffffffffffffffffffffffffff1673ffffffffffffffffffffffffffffffffffffffff16600073ffffffffffffffffffffffffffffffffffffffff167f8be0079c531659141344cd1fd0a4f28419497f9722a3daafe3b4186f6b6457e060405160405180910390a361116c806100db6000396000f3fe608060405234801561001057600080fd5b50600436106100625760003560e01c80630fe9a1d614610067578063715018a6146100835780638da5cb5b1461008d5780638f32d59b146100ab578063f2fde38b146100c9578063f4c714b4146100e5575b600080fd5b610081600480360381019061007c9190610b90565b610118565b005b61008b610536565b005b610095610605565b6040516100a29190610c2a565b60405180910390f35b6100b361062e565b6040516100c09190610c60565b60405180910390f35b6100e360048036038101906100de9190610c7b565b610685565b005b6100ff60048036038101906100fa9190610cde565b6106a2565b60405161010f9493929190610da2565b60405180910390f35b60008080600090505b6001805490508110156101e2578460405160200161013f9190610e31565b60405160208183030381529060405280519060200120600360008381526020019081526020016000206040516020016101789190610f3d565b6040516020818303038152906040528051906020012014156101cf57600192506002600082815260200190815260200160002060009054906101000a900473ffffffffffffffffffffffffffffffffffffffff1691505b80806101da90610f83565b915050610121565b5060011515821515141561022b576040517f08c379a000000000000000000000000000000000000000000000000000000000815260040161022290611018565b60405180910390fd5b8273ffffffffffffffffffffffffffffffffffffffff168173ffffffffffffffffffffffffffffffffffffffff16141561029a576040517f08c379a000000000000000000000000000000000000000000000000000000000815260040161029190611018565b60405180910390fd5b6000429050600160405180608001604052808881526020018781526020018673ffffffffffffffffffffffffffffffffffffffff168152602001838152509080600181540180825580915050600190039060005260206000209060040201600090919091909150600082015181600001908051906020019061031d929190610935565b50602082015181600101908051906020019061033a929190610935565b5060408201518160020160006101000a81548173ffffffffffffffffffffffffffffffffffffffff021916908373ffffffffffffffffffffffffffffffffffffffff1602179055506060820151816003015550506000600180805490506103a19190611038565b9050336002600083815260200190815260200160002060006101000a81548173ffffffffffffffffffffffffffffffffffffffff021916908373ffffffffffffffffffffffffffffffffffffffff1602179055508560036000838152602001908152602001600020908051906020019061041c929190610935565b5086600460008381526020019081526020016000209080519060200190610444929190610935565b506104986001600560003373ffffffffffffffffffffffffffffffffffffffff1673ffffffffffffffffffffffffffffffffffffffff1681526020019081526020016000205461081290919063ffffffff16565b600560003373ffffffffffffffffffffffffffffffffffffffff1673ffffffffffffffffffffffffffffffffffffffff168152602001908152602001600020819055508473ffffffffffffffffffffffffffffffffffffffff167f15fcfac5eaf6fc2bd63c0f413b1c9885f063e4e81c98237dc2b55b2067bfddc68888856040516105259392919061106c565b60405180910390a250505050505050565b61053e61062e565b61054757600080fd5b600073ffffffffffffffffffffffffffffffffffffffff1660008054906101000a900473ffffffffffffffffffffffffffffffffffffffff1673ffffffffffffffffffffffffffffffffffffffff167f8be0079c531659141344cd1fd0a4f28419497f9722a3daafe3b4186f6b6457e060405160405180910390a360008060006101000a81548173ffffffffffffffffffffffffffffffffffffffff021916908373ffffffffffffffffffffffffffffffffffffffff160217905550565b60008060009054906101000a900473ffffffffffffffffffffffffffffffffffffffff16905090565b60008060009054906101000a900473ffffffffffffffffffffffffffffffffffffffff1673ffffffffffffffffffffffffffffffffffffffff163373ffffffffffffffffffffffffffffffffffffffff1614905090565b61068d61062e565b61069657600080fd5b61069f8161083e565b50565b600181815481106106b257600080fd5b90600052602060002090600402016000915090508060000180546106d590610e77565b80601f016020809104026020016040519081016040528092919081815260200182805461070190610e77565b801561074e5780601f106107235761010080835404028352916020019161074e565b820191906000526020600020905b81548152906001019060200180831161073157829003601f168201915b50505050509080600101805461076390610e77565b80601f016020809104026020016040519081016040528092919081815260200182805461078f90610e77565b80156107dc5780601f106107b1576101008083540402835291602001916107dc565b820191906000526020600020905b8154815290600101906020018083116107bf57829003601f168201915b5050505050908060020160009054906101000a900473ffffffffffffffffffffffffffffffffffffffff16908060030154905084565b600080828461082191906110b1565b90508381101561083457610833611107565b5b8091505092915050565b600073ffffffffffffffffffffffffffffffffffffffff168173ffffffffffffffffffffffffffffffffffffffff16141561087857600080fd5b8073ffffffffffffffffffffffffffffffffffffffff1660008054906101000a900473ffffffffffffffffffffffffffffffffffffffff1673ffffffffffffffffffffffffffffffffffffffff167f8be0079c531659141344cd1fd0a4f28419497f9722a3daafe3b4186f6b6457e060405160405180910390a3806000806101000a81548173ffffffffffffffffffffffffffffffffffffffff021916908373ffffffffffffffffffffffffffffffffffffffff16021790555050565b82805461094190610e77565b90600052602060002090601f01602090048101928261096357600085556109aa565b82601f1061097c57805160ff19168380011785556109aa565b828001600101855582156109aa579182015b828111156109a957825182559160200191906001019061098e565b5b5090506109b791906109bb565b5090565b5b808211156109d45760008160009055506001016109bc565b5090565b6000604051905090565b600080fd5b600080fd5b600080fd5b600080fd5b6000601f19601f8301169050919050565b7f4e487b7100000000000000000000000000000000000000000000000000000000600052604160045260246000fd5b610a3f826109f6565b810181811067ffffffffffffffff82111715610a5e57610a5d610a07565b5b80604052505050565b6000610a716109d8565b9050610a7d8282610a36565b919050565b600067ffffffffffffffff821115610a9d57610a9c610a07565b5b610aa6826109f6565b9050602081019050919050565b82818337600083830152505050565b6000610ad5610ad084610a82565b610a67565b905082815260208101848484011115610af157610af06109f1565b5b610afc848285610ab3565b509392505050565b600082601f830112610b1957610b186109ec565b5b8135610b29848260208601610ac2565b91505092915050565b600073ffffffffffffffffffffffffffffffffffffffff82169050919050565b6000610b5d82610b32565b9050919050565b610b6d81610b52565b8114610b7857600080fd5b50565b600081359050610b8a81610b64565b92915050565b600080600060608486031215610ba957610ba86109e2565b5b600084013567ffffffffffffffff811115610bc757610bc66109e7565b5b610bd386828701610b04565b935050602084013567ffffffffffffffff811115610bf457610bf36109e7565b5b610c0086828701610b04565b9250506040610c1186828701610b7b565b9150509250925092565b610c2481610b52565b82525050565b6000602082019050610c3f6000830184610c1b565b92915050565b60008115159050919050565b610c5a81610c45565b82525050565b6000602082019050610c756000830184610c51565b92915050565b600060208284031215610c9157610c906109e2565b5b6000610c9f84828501610b7b565b91505092915050565b6000819050919050565b610cbb81610ca8565b8114610cc657600080fd5b50565b600081359050610cd881610cb2565b92915050565b600060208284031215610cf457610cf36109e2565b5b6000610d0284828501610cc9565b91505092915050565b600081519050919050565b600082825260208201905092915050565b60005b83811015610d45578082015181840152602081019050610d2a565b83811115610d54576000848401525b50505050565b6000610d6582610d0b565b610d6f8185610d16565b9350610d7f818560208601610d27565b610d88816109f6565b840191505092915050565b610d9c81610ca8565b82525050565b60006080820190508181036000830152610dbc8187610d5a565b90508181036020830152610dd08186610d5a565b9050610ddf6040830185610c1b565b610dec6060830184610d93565b95945050505050565b600081905092915050565b6000610e0b82610d0b565b610e158185610df5565b9350610e25818560208601610d27565b80840191505092915050565b6000610e3d8284610e00565b915081905092915050565b7f4e487b7100000000000000000000000000000000000000000000000000000000600052602260045260246000fd5b60006002820490506001821680610e8f57607f821691505b60208210811415610ea357610ea2610e48565b5b50919050565b60008190508160005260206000209050919050565b60008154610ecb81610e77565b610ed58186610df5565b94506001821660008114610ef05760018114610f0157610f34565b60ff19831686528186019350610f34565b610f0a85610ea9565b60005b83811015610f2c57815481890152600182019150602081019050610f0d565b838801955050505b50505092915050565b6000610f498284610ebe565b915081905092915050565b7f4e487b7100000000000000000000000000000000000000000000000000000000600052601160045260246000fd5b6000610f8e82610ca8565b91507fffffffffffffffffffffffffffffffffffffffffffffffffffffffffffffffff821415610fc157610fc0610f54565b5b600182019050919050565b7f46696c6520616c72656164792065786973740000000000000000000000000000600082015250565b6000611002601283610d16565b915061100d82610fcc565b602082019050919050565b6000602082019050818103600083015261103181610ff5565b9050919050565b600061104382610ca8565b915061104e83610ca8565b92508282101561106157611060610f54565b5b828203905092915050565b600060608201905081810360008301526110868186610d5a565b9050818103602083015261109a8185610d5a565b90506110a96040830184610d93565b949350505050565b60006110bc82610ca8565b91506110c783610ca8565b9250827fffffffffffffffffffffffffffffffffffffffffffffffffffffffffffffffff038211156110fc576110fb610f54565b5b828201905092915050565b7f4e487b7100000000000000000000000000000000000000000000000000000000600052600160045260246000fdfea2646970667358221220842eae7a3f67a7f023edbfd94dbeec6b5f77f2c546eafff19555a3d2d315370a64736f6c634300080c0033",
  "immutableReferences": {},
  "source": "// SPDX-License-Identifier: MIT\r\npragma solidity ^0.8.0;\r\n\r\nimport \"./Storage.sol\";\r\nimport \"./safemath.sol\";\r\n\r\ncontract StoreFile is Storage {\r\n  using SafeMath for uint256;\r\n\r\n  event StoreFileEvent(\r\n    string name,\r\n    string fileHash,\r\n    address indexed owner,\r\n    uint storeDate\r\n  );\r\n\r\n  function Store(string memory _name, string memory _fileHash, address _owner) public {\r\n    bool isExist = false;\r\n    address owner;\r\n\r\n    // Check if there is the same file already recorded on the blockchain\r\n    for(uint i = 0; i < files.length; i++) {\r\n      if(keccak256(abi.encodePacked(fileToHash[i])) == keccak256(abi.encodePacked(_fileHash))){\r\n        isExist = true;\r\n        owner = fileToOwner[i];\r\n      }\r\n    }\r\n\r\n    // If same file exist, then:\r\n    if(isExist == true) {\r\n      revert('File already exist');\r\n    } else {\r\n      // If file is unique then check the owner\r\n      // Owner can't store same file multiple times\r\n      if(owner == _owner) {\r\n        revert('File already exist');\r\n      } else {\r\n        // Finally if everything si clear then proceed\r\n        uint _storeDate = block.timestamp;\r\n        files.push(File(_name, _fileHash, _owner, _storeDate));\r\n        uint id = files.length - 1;\r\n        fileToOwner[id] = msg.sender;\r\n        fileToHash[id] = _fileHash;\r\n        fileToName[id] = _name;\r\n        ownerFileCount[msg.sender] = ownerFileCount[msg.sender].add(1);\r\n        emit StoreFileEvent(_name, _fileHash, _owner, _storeDate);\r\n      }\r\n    }\r\n  }\r\n}",
  "sourcePath": "C:\\Users\\DELL\\Desktop\\planet-of-docs\\contracts\\StoreFile.sol",
  "compiler": {
    "name": "solc",
    "version": "0.8.12+commit.f00d7308.Emscripten.clang"
  },
  "schemaVersion": "3.4.5",
  "updatedAt": "2022-03-10T09:56:09.842Z",
  "devdoc": {
    "kind": "dev",
    "methods": {
      "isOwner()": {
        "returns": {
          "_0": "true if `msg.sender` is the owner of the contract."
        }
      },
      "owner()": {
        "returns": {
          "_0": "the address of the owner."
        }
      },
      "renounceOwnership()": {
        "details": "Allows the current owner to relinquish control of the contract."
      },
      "transferOwnership(address)": {
        "details": "Allows the current owner to transfer control of the contract to a newOwner.",
        "params": {
          "newOwner": "The address to transfer ownership to."
        }
      }
    },
    "version": 1
  },
  "userdoc": {
    "kind": "user",
    "methods": {
      "renounceOwnership()": {
        "notice": "Renouncing to ownership will leave the contract without an owner. It will not be possible to call the functions with the `onlyOwner` modifier anymore."
      }
    },
    "version": 1
  }
}